S00D0000736E616B652E7372656305
S11300000C9434000C9451000C9451000C94510045
S11300100C9451000C9451000C9451000C94510018
S11300200C9451000C9451000C9451000C94510008
S11300300C9451000C9489000C9451000C945100C0
S11300400C9451000C9451000C9451000C945100E8
S11300500C9451000C9451000C9451000C945100D8
S11300600C9451000C94510011241FBECFEFD8E022
S1130070DEBFCDBF11E0A0E0B1E0E0E7F2E002C0F6
S113008005900D92A630B107D9F721E0A6E0B1E0C2
S113009001C01D92A730B207E1F70E9478000C94CA
S11300A036010C940000FC01408121E030E002C0E4
S11300B0220F331F6A95E2F7242B20830895FC0155
S11300C0908121E030E002C0220F331F6A95E2F7ED
S11300D02095292320830895FC01408121E030E00C
S11300E002C0220F331F6A95E2F7242B2083089560
S11300F00E94B900E1E8F0E080818B7F80838081F9
S113010083608083EFE6F0E080818160808378946F
S1130110FFCF1F920F920FB60F9211242F933F938C
S11301204F935F936F937F938F939F93AF93BF93FB
S1130130EF93FF93809106010E94C900809106010C
S11301408F5F863018F48093060102C01092060176
S1130150FF91EF91BF91AF919F918F917F916F919B
S11301605F914F913F912F910F900FBE0F901F9071
S1130170189564E08AE290E00E94530067E08AE206
S113018090E00E94530060E084E290E00E945300FB
S11301900895CF93DF93E82FF0E0E050FF4FD08134
S11301A064E08BE290E00E945F0067E08BE290E005
S11301B00E945F0060E085E290E00E945F0085E0BD
S11301C08A95F1F70000C8E0D0FD06C060E085E242
S11301D090E00E945F0005C060E085E290E00E942C
S11301E06C0085E08A95F1F7000067E08BE290E00F
S11301F00E946C0085E08A95F1F7000067E08BE2CD
S113020090E00E945F00D695C150F1F6C8E0D0E1BD
S1130210D0FD06C060E085E290E00E945F0005C06A
S113022060E085E290E00E946C0085E08A95F1F739
S1130230000067E08BE290E00E946C0085E08A9504
S1130240F1F7000067E08BE290E00E945F00D69532
S1130250C150F1F664E08BE290E00E946C0085E00E
S11302608A95F1F70000DF91CF910895F894FFCFBC
S10902707FBFDFEFF7FB86
S9030000FC
