:100000000C9434000C9451000C9451000C94510049
:100010000C9451000C9451000C9451000C9451001C
:100020000C9451000C9451000C9451000C9451000C
:100030000C9451000C942E020C9451000C9451001D
:100040000C94D4030C9451000C948D050C94BB05B6
:100050000C9451000C9451000C9451000C945100DC
:100060000C9451000C94510011241FBECFEFD8E026
:10007000DEBFCDBF13E0A0E0B1E0E8E2F1E102C0F5
:1000800005900D92A235B107D9F723E0A2E5B3E0C0
:1000900001C01D92A23AB207E1F70E94DA010C9466
:1000A00092080C94000063E08AE290E00E94120142
:1000B00062E08AE290E00E94120165E087E290E04F
:1000C0000E94120164E087E290E00E94120165E064
:1000D00084E290E00E94120164E084E290E00E94D9
:1000E000120163E084E290E00E94120162E084E287
:1000F00090E00E9412010895CF93C82F80FF06C0A0
:1001000062E085E290E00E942B0105C062E085E29A
:1001100090E00E941E01C1FF06C063E085E290E00E
:100120000E942B0105C063E085E290E00E941E0161
:10013000C2FF06C064E085E290E00E942B0105C08A
:1001400064E085E290E00E941E01C3FF06C065E006
:1001500085E290E00E942B0105C065E085E290E019
:100160000E941E01C4FF06C064E088E290E00E9485
:100170002B0105C064E088E290E00E941E01C5FFEB
:1001800006C065E088E290E00E942B0105C065E0B2
:1001900088E290E00E941E01C6FF06C062E08BE28A
:1001A00090E00E942B0105C062E08BE290E00E948B
:1001B0001E01CC2334F463E08BE290E00E942B011B
:1001C00005C063E08BE290E00E941E01CF9108958C
:1001D000BC0180E090E00E9418072DEC3CEC4CEC58
:1001E0005FE30E94CA079B01AC0160E070E583EC0D
:1001F00097E40E9470060E94E90680E090E00E9469
:1002000018079B01AC0160E070E08FE793E40E9467
:10021000700620E030E0A9010E94FF050E94E2067E
:10022000862F0895FC01408121E030E002C0220FBA
:10023000331F6A95E2F7242B20830895FC019081F7
:1002400021E030E002C0220F331F6A95E2F72095CB
:10025000292320830895FC01408121E030E002C081
:10026000220F331F6A95E2F7242B20830895299AE1
:1002700085E08A95F1F7000029980895CF93C82F5B
:10028000662311F0289A01C02898549A559A569AD4
:10029000579A5F985E985D985C98CC230CF45F9AAF
:1002A000C6FD5E9AC5FD5D9AC4FD5C9A0E94370149
:1002B0005F985E985D985C98C3FD5F9AC2FD5E9AF8
:1002C000C1FD5D9AC0FD5C9A0E9437015C9A5D9AFF
:1002D0005E9A5F9A87EB9BE00197F1F700C0000000
:1002E000CF91089560E00E943E010895611104C01D
:1002F00080580E947201089580540E9472010895EE
:1003000081E00E947201089561E00E943E0108951B
:10031000CF93DF93EC012196FC018081882329F0A3
:100320000E94840189918111FBCFDF91CF910895C3
:10033000CF93C82F209A559A219A549A559A569A33
:10034000579A8FEF99EF0197F1F700C000005D9A7F
:100350005C9A0E9437018FE19EE40197F1F700C09B
:1003600000000E9437018FEF90E00197F1F700C085
:1003700000000E9437018FEF90E00197F1F700C075
:1003800000005C980E9437018FEF90E00197F1F731
:1003900000C0000088E20E94720188E00E947201A1
:1003A0000E94800186E00E9472018C2F0E947201DF
:1003B000CF9108958CE00E94980160E080E00E9457
:1003C00076018CE093E00E94880161E080E00E9469
:1003D000760187E193E00E94880160E08BE00E9453
:1003E00076018DE193E00E9488010E945300ECE7C2
:1003F000F0E080818064808380818F77808380813A
:10040000807F8083CAE7D0E0888180688883888184
:1004100088608883888187608883EFE6F0E0808148
:1004200081608083E1E8F0E080818B7F8083808140
:1004300083608083EEE6F0E080818160808385B513
:10044000897F85BD85B5816085BD81E194E00E948D
:10045000E5057894888180648883FFCF1F920F928E
:100460000FB60F9211240F931F932F933F934F9327
:100470005F936F937F938F939F93AF93BF93EF930C
:10048000FF93CF93DF9300D000D0CDB7DEB780E3EA
:1004900090E39A8389839C838B83009178001091E9
:1004A00079004AE0BE016F5F7F4FC8010E94550886
:1004B00061E088E00E94760182E293E00E94880178
:1004C00061E087E00E94760180E091E00E9488016F
:1004D00061E08CE00E9476018EE293E00E94880148
:1004E0000233110508F442C1093542E0140788F0CF
:1004F00097E390930A0180915C03E82FF0E0E050CD
:10050000FF4F9083833008F031C18F5F80935C038D
:100510002DC1013981E0180788F098E390930A0112
:1005200080915C03E82FF0E0E050FF4F9083833030
:1005300008F01CC18F5F80935C0318C1093141E052
:10054000140788F099E390930A0180915C03E82FE7
:10055000F0E0E050FF4F9083833008F007C18F5FD9
:1005600080935C0303C1013F110560F060E08BE004
:100570000E94760181E393E00E94880183E58093E5
:100580000B01F4C0093C110588F094E390930A0133
:1005900080915C03E82FF0E0E050FF4F90838330C0
:1005A00008F0E4C08F5F80935C03E0C00B3A110554
:1005B00088F095E390930A0180915C03E82FF0E0C6
:1005C000E050FF4F9083833008F0D0C08F5F80935E
:1005D0005C03CCC00239110588F096E390930A01C0
:1005E00080915C03E82FF0E0E050FF4F9083833070
:1005F00008F0BCC08F5F80935C03B8C0043811055D
:1006000060F060E08BE00E94760188E393E00E9456
:10061000880182E580930B01A9C00937110588F094
:1006200091E390930A0180915C03E82FF0E0E050A1
:10063000FF4F9083833008F099C08F5F80935C03F5
:1006400095C00D36110588F092E390930A018091D0
:100650005C03E82FF0E0E050FF4F9083833008F018
:1006600085C08F5F80935C0381C00236110588F0DE
:1006700093E390930A0180915C03E82FF0E0E0504F
:10068000FF4F9083833008F071C08F5F80935C03CD
:100690006DC00B35110560F060E08BE00E947601C3
:1006A0008FE393E00E94880181E580930B015EC097
:1006B00006351105E8F08AE280930A0161E085E0E1
:1006C0000E94760182E293E00E948801E0E0F1E07E
:1006D00081E3808380E3818380E2828383838483D8
:1006E0008583868387838087818710925C033EC0E1
:1006F0000E34110580F090E390930A0180915C0321
:10070000E82FF0E0E050FF4F9083833078F58F5F63
:1007100080935C032BC00A341105E8F083E28093D8
:100720000A0110925C0380E091E00E9437089C016E
:100730002A5031092F37334128F490930D018093CB
:100740000C0114C061E087E00E94760186E493E02A
:100750000E9488010BC060E08BE00E9476018CE46F
:1007600093E00E94880184E480930B01EAE7F0E0C3
:100770008081806480830F900F900F900F90DF91A5
:10078000CF91FF91EF91BF91AF919F918F917F9109
:100790006F915F914F913F912F911F910F910F900A
:1007A0000FBE0F901F9018951F920F920FB60F92C9
:1007B0001124CF92DF92EF92FF922F933F934F93AA
:1007C0005F936F937F938F939F93AF93BF93CF93D9
:1007D000DF93EF93FF93C0905803D0905903E090BC
:1007E0005A03F0905B0320E030E040E85FE3C7018C
:1007F000B6010E946B0688238CF560910C01709104
:100800000D0180E090E00E9418072DEC3CEC4CECD0
:100810005FE30E94CA079B01AC0160E070E583ECD6
:1008200097E40E9470060E94E90680E090E00E9432
:1008300018079B01AC0160E070E08FE793E40E9431
:100840007006A70196010E94FF05609358037093FC
:10085000590380935A0390935B0308C01092580386
:100860001092590310925A0310925B03609158033F
:100870007091590380915A0390915B030E94E206A4
:100880006B017C0190910B01933589F4E091570342
:10089000F0E0EE0FFF1FE25FFE4F80818093560372
:1008A0000E947C00809157038C0D80935703909198
:1008B0000B019235D1F48091560396013327280F0E
:1008C000311D2F3F310509F034F48C0D8093560310
:1008D0000E947C000AC08FEF809356030E947C0028
:1008E0001092560380E00E947C0080910B018135BC
:1008F00009F042C060910C0170910D0180E090E020
:100900000E9418072DEC3CEC4CEC5FE30E94CA07F8
:100910009B01AC0160E070E583EC97E40E947006F7
:100920000E94E906AB01209154033091550376955E
:1009300067952617370760F42F5F3F4F30935503B5
:10094000209354038FEF809356030E947C0014C0C1
:100950002417350760F42F5F3F4F309355032093E2
:1009600054031092560380E00E947C0005C0109250
:10097000550310925403BAC080910B01843409F0DE
:10098000B5C060E08FE00E94760180910A010E946C
:10099000840190910A018FEC890F8330D8F08CECA0
:1009A000890F8330D0F089EC890F8330C8F021E0C3
:1009B0009A3209F020E081E0903309F080E0822B48
:1009C00031F481E0933209F080E0882361F04DEA50
:1009D00053E00BC049EB52E008C042E053E005C0D1
:1009E00044E553E002C040E050E031E0913309F0CB
:1009F00030E021E0943309F020E0322B21E09733FE
:100A000009F020E0232B61F521E09A3209F020E083
:100A1000211126C081E0953309F080E021E0983370
:100A200009F020E0282BF9F421E0892F8D7F803315
:100A300009F020E0211117C021E0963309F020E0F1
:100A400081E0993309F080E0822B39F49F7E81E0C8
:100A5000933209F080E0882349F0C5ECD5E008C066
:100A6000C9EBD4E005C0C8E3D5E002C0C0E0D0E0E7
:100A7000CA010E94E800F82ECE010E94E800E82E8C
:100A8000E0915203F0E0EE0FFF1FE25FFE4F808126
:100A9000918196958795E0915303F0E0EE0FFF1F4B
:100AA000E25FFE4F9081890F809356030E947C0085
:100AB000209153038F2D90E0820F911D8E3F914026
:100AC00020F4F20EF092530302C0109253032091CF
:100AD00052038E2D90E0820F911D8E3F914020F4A5
:100AE000E20EE092520302C010925203FF91EF9186
:100AF000DF91CF91BF91AF919F918F917F916F9136
:100B00005F914F913F912F91FF90EF90DF90CF90A9
:100B10000F900FBE0F901F9018951F920F920FB657
:100B20000F9211242F938F939F93EF93FF938091B4
:100B3000C0002091C6008C71E0915F03EF5FEF7100
:100B400090915E03E91739F0E0935F03F0E0EE590E
:100B5000FC4F208301C082E090915D03892B80933C
:100B60005D03FF91EF919F918F912F910F900FBE99
:100B70000F901F9018951F920F920FB60F9211248D
:100B80008F939F93EF93FF93909161038091600304
:100B9000981769F0E0916003EF5FEF71E0936003F5
:100BA000F0E0EE57FC4F80818093C60005C0E1EC79
:100BB000F0E080818F7D8083FF91EF919F918F91F5
:100BC0000F900FBE0F901F90189510926103109216
:100BD000600310925F0310925E0399231CF422E0DD
:100BE0002093C00090789093C5008093C40088E95A
:100BF0008093C10086E08093C20008955058BB27BF
:100C0000AA270E9416060C9490070E94820738F0CB
:100C10000E94890720F039F49F3F19F426F40C94C0
:100C20007F070EF4E095E7FB0C947907E92F0E940B
:100C3000A10758F3BA17620773078407950720F0D6
:100C400079F4A6F50C94C3070EF4E0950B2EBA2F99
:100C5000A02D0B01B90190010C01CA01A0011124C2
:100C6000FF27591B99F0593F50F4503E68F11A166E
:100C7000F040A22F232F342F4427585FF3CF4695FF
:100C800037952795A795F0405395C9F77EF41F1621
:100C9000BA0B620B730B840BBAF09150A1F0FF0FEB
:100CA000BB1F661F771F881FC2F70EC0BA0F621FD7
:100CB000731F841F48F4879577956795B795F795C7
:100CC0009E3F08F0B0CF9395880F08F09927EE0F5C
:100CD0009795879508950E94550708F481E0089537
:100CE0000E9484060C9490070E94890758F00E9485
:100CF000820740F029F45F3F29F00C9479075111E5
:100D00000C94C4070C947F070E94A10768F39923F1
:100D1000B1F3552391F3951B550BBB27AA276217F7
:100D20007307840738F09F5F5F4F220F331F441F04
:100D3000AA1FA9F335D00E2E3AF0E0E832D0915038
:100D40005040E695001CCAF72BD0FE2F29D0660F25
:100D5000771F881FBB1F261737074807AB07B0E868
:100D600009F0BB0B802DBF01FF2793585F4F3AF06E
:100D70009E3F510578F00C9479070C94C4075F3FAF
:100D8000E4F3983ED4F3869577956795B795F795F4
:100D90009F5FC9F7880F911D9695879597F90895DC
:100DA000E1E0660F771F881FBB1F62177307840778
:100DB000BA0720F0621B730B840BBA0BEE1F88F787
:100DC000E09508950E94E9066894B1110C94C40757
:100DD00008950E94A90788F09F5798F0B92F992786
:100DE000B751B0F0E1F0660F771F881F991F1AF016
:100DF000BA95C9F714C0B13091F00E94C307B1E0B1
:100E000008950C94C307672F782F8827B85F39F0AF
:100E1000B93FCCF3869577956795B395D9F73EF4AE
:100E200090958095709561957F4F8F4F9F4F089556
:100E3000E89409C097FB3EF4909580957095619574
:100E40007F4F8F4F9F4F9923A9F0F92F96E9BB272A
:100E50009395F695879577956795B795F111F8CFA6
:100E6000FAF4BB0F11F460FF1BC06F5F7F4F8F4F11
:100E70009F4F16C0882311F096E911C0772321F007
:100E80009EE8872F762F05C0662371F096E8862F9F
:100E900070E060E02AF09A95660F771F881FDAF7F6
:100EA000880F9695879597F90895990F0008550F23
:100EB000AA0BE0E8FEEF16161706E807F907C0F0E0
:100EC00012161306E407F50798F0621B730B840BE8
:100ED000950B39F40A2661F0232B242B252B21F4C2
:100EE00008950A2609F4A140A6958FEF811D811D62
:100EF000089597F99F6780E870E060E008959FEF9C
:100F000080EC089500240A941616170618060906A0
:100F1000089500240A94121613061406050608956F
:100F2000092E0394000C11F4882352F0BB0F40F4F7
:100F3000BF2B11F460FF04C06F5F7F4F8F4F9F4F37
:100F4000089557FD9058440F551F59F05F3F71F0B9
:100F50004795880F97FB991F61F09F3F79F0879520
:100F60000895121613061406551FF2CF4695F1DFA9
:100F700008C0161617061806991FF1CF8695710539
:100F8000610508940895E894BB2766277727CB016D
:100F900097F908950E94DD070C9490070E9482073C
:100FA00038F00E94890720F0952311F00C947907FE
:100FB0000C947F0711240C94C4070E94A10770F3BE
:100FC000959FC1F3950F50E0551F629FF001729FEE
:100FD000BB27F00DB11D639FAA27F00DB11DAA1FFD
:100FE000649F6627B00DA11D661F829F2227B00D4A
:100FF000A11D621F739FB00DA11D621F839FA00DD5
:10100000611D221F749F3327A00D611D231F849F24
:10101000600D211D822F762F6A2F11249F5750407B
:101020009AF0F1F088234AF0EE0FFF1FBB1F661FF6
:10103000771F881F91505040A9F79E3F510580F0BF
:101040000C9479070C94C4075F3FE4F3983ED4F303
:10105000869577956795B795F795E7959F5FC1F763
:10106000FE2B880F911D9695879597F90895FC01A1
:1010700088279927E89421912032E9F3293010F04C
:101080002E30C8F32B3241F02D3239F4689404C06D
:101090000E946008820F911D219120532A30C0F3D5
:1010A0001EF4909581959F4F0895BB274A3031F4E7
:1010B000992322F4BDE2909581959F4F0C94690885
:1010C0007AE0979F902D879F802D910D1124089590
:1010D000BB27FB015527AA27880F991FAA1FA41712
:1010E00010F0A41B83955051B9F7A05DAA3308F006
:1010F000A95DA193009779F7B111B1931192CB013A
:101100000C948208DC01FC01672F71917723E1F7D1
:10111000329704C07C916D9370836291AE17BF07C4
:08112000C8F30895F894FFCF15
:101128003130000000000000000031530A007F0049
:101138008200850088008C008F009200950098003E
:101148009B009E00A100A400A700AA00AD00B0006B
:10115800B300B600B900BC00BE00C100C400C600A0
:10116800C900CB00CE00D000D300D500D700DA00EC
:10117800DC00DE00E000E200E400E600E800EA004F
:10118800EB00ED00EE00F000F100F300F400F500D4
:10119800F600F700F800F900FA00FB00FC00FC007C
:1011A800FD00FD00FE00FE00FE00FE00FE00FE0049
:1011B800FE00FE00FE00FE00FD00FD00FC00FC003D
:1011C800FB00FA00F900F800F700F600F500F4005B
:1011D800F300F100F000EE00ED00EB00EA00E8009B
:1011E800E600E400E200E000DE00DC00DA00D70000
:1011F800D500D300D000CE00CB00C900C600C40083
:10120800C100BE00BC00B900B600B300B000AD001C
:10121800AA00A700A400A1009E009B0098009500CA
:1012280092008F008C008800850082007F007C007F
:101238007900760072006F006C0069006600630038
:1012480060005D005A005700540051004E004B00EA
:1012580048004500420040003D003A003800350093
:10126800330030002E002B00290027002400220024
:1012780020001E001C001A0018001600140013009D
:10128800110010000E000D000B000A0009000800F4
:101298000700060005000400030002000200010028
:1012A8000100000000000000000000000000000035
:1012B800000000000000010001000200020003001D
:1012C8000400050006000700080009000A000B00DA
:1012D8000D000E0010001100130014001600180075
:1012E8001A001C001E0020002200240027002900EC
:1012F8002B002E0030003300350038003A003D0046
:1013080040004200450048004B004E005100540088
:1013180057005A005D0060006300660069006C00B9
:101328006F007200760079007C007F0047454E45CB
:101338005241544F523A00465245513A0053494E91
:101348002000202020202020202020202000487A53
:101358000053494E2020200052414D502020005378
:101368005152202020006572726F720044544D461D
:02137800000073
:00000001FF
