S01400004B6E696768742072696465722E7372656375
S11300000C9434000C943E000C943E000C943E007E
S11300100C943E000C943E000C943E000C943E0064
S11300200C943E000C943E000C943E000C943E0054
S11300300C943E000C943E000C943E000C943E0044
S11300400C943E000C943E000C943E000C943E0034
S11300500C943E000C943E000C943E000C943E0024
S11300600C943E000C943E0011241FBECFEFD8E048
S1130070DEBFCDBF0E9440000C94B3000C9400007E
S11300805098589A84B18F6184B985B1807E85B9BE
S1130090E1E021E030E04FEF54E36CE041505040A8
S11300A06040E1F700C000004899F5CF85B18E2784
S11300B085B98FEF94E34CE0815090404040E1F7E4
S11300C000C0000080E090E055B1B901082E02C0E4
S11300D0660F771F0A94E2F7462F4095452745B9E6
S11300E055B10196B901082E02C0660F771F0A9414
S11300F0E2F7462F4095452745B95FEF64E34CE0AE
S1130100515060404040E1F700C000008430910548
S1130110D9F684E090E055B1B901082E02C0660F0B
S1130120771F0A94E2F7462F4095452745B955B104
S11301300197B901082E02C0660F771F0A94E2F7EF
S1130140462F4095452745B95FEF64E34CE0515095
S113015060404040E1F700C000000097E1F685B13F
S10D01608E2785B998CFF894FFCFDD
S9030000FC
